{
  "abi": [
    {
      "inputs": [],
      "stateMutability": "nonpayable",
      "type": "constructor"
    },
    {
      "inputs": [
        {
          "internalType": "address",
          "name": "owner",
          "type": "address"
        },
        {
          "internalType": "bytes12",
          "name": "vaultId",
          "type": "bytes12"
        },
        {
          "internalType": "uint128",
          "name": "base",
          "type": "uint128"
        },
        {
          "internalType": "uint128",
          "name": "ink",
          "type": "uint128"
        },
        {
          "internalType": "uint128",
          "name": "art",
          "type": "uint128"
        }
      ],
      "name": "doClose",
      "outputs": [],
      "stateMutability": "nonpayable",
      "type": "function"
    },
    {
      "inputs": [
        {
          "internalType": "uint256",
          "name": "investAmount",
          "type": "uint256"
        },
        {
          "internalType": "uint128",
          "name": "borrowAmount",
          "type": "uint128"
        },
        {
          "internalType": "uint128",
          "name": "maxFyAmount",
          "type": "uint128"
        },
        {
          "internalType": "bytes12",
          "name": "vaultId",
          "type": "bytes12"
        }
      ],
      "name": "doInvest",
      "outputs": [],
      "stateMutability": "nonpayable",
      "type": "function"
    },
    {
      "inputs": [
        {
          "internalType": "address",
          "name": "owner",
          "type": "address"
        },
        {
          "internalType": "bytes12",
          "name": "vaultId",
          "type": "bytes12"
        },
        {
          "internalType": "uint256",
          "name": "borrowAmount",
          "type": "uint256"
        },
        {
          "internalType": "uint128",
          "name": "ink",
          "type": "uint128"
        }
      ],
      "name": "doRepay",
      "outputs": [],
      "stateMutability": "nonpayable",
      "type": "function"
    },
    {
      "inputs": [
        {
          "internalType": "uint256",
          "name": "baseAmount",
          "type": "uint256"
        },
        {
          "internalType": "uint128",
          "name": "borrowAmount",
          "type": "uint128"
        },
        {
          "internalType": "uint128",
          "name": "maxFyAmount",
          "type": "uint128"
        },
        {
          "internalType": "bytes6",
          "name": "seriesId",
          "type": "bytes6"
        }
      ],
      "name": "invest",
      "outputs": [
        {
          "internalType": "bytes12",
          "name": "",
          "type": "bytes12"
        }
      ],
      "stateMutability": "nonpayable",
      "type": "function"
    },
    {
      "inputs": [
        {
          "internalType": "bytes12",
          "name": "vaultId",
          "type": "bytes12"
        },
        {
          "internalType": "uint256",
          "name": "maxAmount",
          "type": "uint256"
        },
        {
          "internalType": "address",
          "name": "pool",
          "type": "address"
        },
        {
          "internalType": "uint128",
          "name": "ink",
          "type": "uint128"
        },
        {
          "internalType": "uint128",
          "name": "art",
          "type": "uint128"
        },
        {
          "internalType": "bytes6",
          "name": "seriesId",
          "type": "bytes6"
        }
      ],
      "name": "unwind",
      "outputs": [],
      "stateMutability": "nonpayable",
      "type": "function"
    }
  ],
  "bytecode": {
    "object": "0x608060405234801561001057600080fd5b5060405163095ea7b360e01b815273a354f35829ae975e850e23e9615b11da1b3dc4de6004820152600019602482015273a0b86991c6218b36c1d19d4a2e9eb0ce3606eb489063095ea7b3906044016020604051808303816000875af115801561007e573d6000803e3d6000fd5b505050506040513d601f19601f820116820180604052508101906100a291906100a8565b506100d1565b6000602082840312156100ba57600080fd5b815180151581146100ca57600080fd5b9392505050565b6115d2806100e06000396000f3fe608060405234801561001057600080fd5b50600436106100575760003560e01c806347b348451461005c57806350bf94d7146100715780636e6bf1f414610084578063d238b43314610097578063fcd064cf146100aa575b600080fd5b61006f61006a366004610fce565b6100da565b005b61006f61007f366004611036565b610230565b61006f61009236600461107e565b6104e5565b61006f6100a5366004611105565b61079d565b6100bd6100b836600461117e565b610c5d565b6040516001600160a01b0319909116815260200160405180910390f35b604051636e553f6560e01b81526004810185905273403ae7384e89b086ea2935d5fafed07465242b38602482015260009073a354f35829ae975e850e23e9615b11da1b3dc4de90636e553f65906044016020604051808303816000875af1158015610149573d6000803e3d6000fd5b505050506040513d601f19601f8201168201806040525081019061016d91906111c6565b6040516315bf1a8f60e31b81526001600160a01b0319841660048201527332e4c68b3a4a813b710595aeba7f6b7604ab9c1560248201526001600160801b038083166044830152808716606483015285166084820152909150736cb18ff2a33e981d1e38a663ca056c0a5265066a9063adf8d4789060a4016020604051808303816000875af1158015610204573d6000803e3d6000fd5b505050506040513d601f19601f8201168201806040525081019061022891906111df565b505050505050565b736cb18ff2a33e981d1e38a663ca056c0a5265066a6324bd54b4843061025585611219565b6040516001600160e01b031960e086901b1681526001600160a01b031990931660048401526001600160a01b039091166024830152600f0b60448201526001600160801b03851660648201526084016020604051808303816000875af11580156102c3573d6000803e3d6000fd5b505050506040513d601f19601f820116820180604052508101906102e791906111df565b5073a354f35829ae975e850e23e9615b11da1b3dc4de6001600160a01b0316633ccfd60b6040518163ffffffff1660e01b81526004016020604051808303816000875af115801561033c573d6000803e3d6000fd5b505050506040513d601f19601f8201168201806040525081019061036091906111c6565b5060405163a9059cbb60e01b81527332e4c68b3a4a813b710595aeba7f6b7604ab9c1560048201526024810183905273a0b86991c6218b36c1d19d4a2e9eb0ce3606eb489063a9059cbb906044016020604051808303816000875af11580156103cd573d6000803e3d6000fd5b505050506040513d601f19601f820116820180604052508101906103f19190611248565b506040516370a0823160e01b815230600482015273a0b86991c6218b36c1d19d4a2e9eb0ce3606eb489063a9059cbb90869083906370a0823190602401602060405180830381865afa15801561044b573d6000803e3d6000fd5b505050506040513d601f19601f8201168201806040525081019061046f91906111c6565b6040516001600160e01b031960e085901b1681526001600160a01b03909216600483015260248201526044016020604051808303816000875af11580156104ba573d6000803e3d6000fd5b505050506040513d601f19601f820116820180604052508101906104de9190611248565b5050505050565b736cb18ff2a33e981d1e38a663ca056c0a5265066a63441c70f7853061050a86611219565b61051386611219565b6040516001600160e01b031960e087901b1681526001600160a01b031990941660048501526001600160a01b039092166024840152600f90810b60448401520b60648201526084016020604051808303816000875af115801561057a573d6000803e3d6000fd5b505050506040513d601f19601f8201168201806040525081019061059e91906111df565b5073a354f35829ae975e850e23e9615b11da1b3dc4de6001600160a01b0316633ccfd60b6040518163ffffffff1660e01b81526004016020604051808303816000875af11580156105f3573d6000803e3d6000fd5b505050506040513d601f19601f8201168201806040525081019061061791906111c6565b5060405163a9059cbb60e01b81527332e4c68b3a4a813b710595aeba7f6b7604ab9c1560048201526001600160801b038416602482015273a0b86991c6218b36c1d19d4a2e9eb0ce3606eb489063a9059cbb906044016020604051808303816000875af115801561068c573d6000803e3d6000fd5b505050506040513d601f19601f820116820180604052508101906106b09190611248565b506040516370a0823160e01b815230600482015273a0b86991c6218b36c1d19d4a2e9eb0ce3606eb489063a9059cbb90879083906370a0823190602401602060405180830381865afa15801561070a573d6000803e3d6000fd5b505050506040513d601f19601f8201168201806040525081019061072e91906111c6565b6040516001600160e01b031960e085901b1681526001600160a01b03909216600483015260248201526044016020604051808303816000875af1158015610779573d6000803e3d6000fd5b505050506040513d601f19601f820116820180604052508101906102289190611248565b604051631e81f82960e01b81526001600160a01b03198716600482015260009073c88191f8cb8e6d4a668b047c1c8503432c3ca86790631e81f82990602401606060405180830381865afa1580156107f9573d6000803e3d6000fd5b505050506040513d601f19601f8201168201806040525081019061081d91906112f8565b6040516315740f8d60e21b81526001600160d01b03198416600482015290915060009073c88191f8cb8e6d4a668b047c1c8503432c3ca867906355d03e3490602401606060405180830381865afa15801561087c573d6000803e3d6000fd5b505050506040513d601f19601f820116820180604052508101906108a09190611314565b82519091506001600160a01b031633146108b957600080fd5b60405163798a828b60e01b815273c88191f8cb8e6d4a668b047c1c8503432c3ca8679063798a828b906108f2908b90309060040161138f565b6060604051808303816000875af1158015610911573d6000803e3d6000fd5b505050506040513d601f19601f8201168201806040525081019061093591906112f8565b50806040015163ffffffff164263ffffffff161015610a3b576040513360248201526001600160a01b031989166044820152606481018890526001600160801b03861660848201527332e4c68b3a4a813b710595aeba7f6b7604ab9c159063c5bf0e9d9089908990309060a40160408051601f198184030181529181526020820180516001600160e01b03166350bf94d760e01b1790525160e086901b6001600160e01b03191681526109ee949392919060040161140e565b6000604051808303816000875af1158015610a0d573d6000803e3d6000fd5b505050506040513d6000823e601f3d908101601f19168201604052610a359190810190611458565b50610bd6565b60405163550b025360e01b81526001600160d01b0319841660048201526001600160801b038516602482015260009073c88191f8cb8e6d4a668b047c1c8503432c3ca8679063550b0253906044016020604051808303816000875af1158015610aa8573d6000803e3d6000fd5b505050506040513d601f19601f82011682018060405250810190610acc91906111df565b6040513360248201526001600160a01b03198b1660448201526001600160801b0380831660648301528089166084830152871660a48201529091507332e4c68b3a4a813b710595aeba7f6b7604ab9c159063c5bf0e9d908390730d9a1a773be5a83eebda23bf98efb8585c3ae4f490309060c40160408051601f198184030181529181526020820180516001600160e01b0316631b9afc7d60e21b1790525160e086901b6001600160e01b0319168152610b8c9493929190600401611505565b6000604051808303816000875af1158015610bab573d6000803e3d6000fd5b505050506040513d6000823e601f3d908101601f19168201604052610bd39190810190611458565b50505b60405163798a828b60e01b815273c88191f8cb8e6d4a668b047c1c8503432c3ca8679063798a828b90610c0f908b90339060040161138f565b6060604051808303816000875af1158015610c2e573d6000803e3d6000fd5b505050506040513d601f19601f82011682018060405250810190610c5291906112f8565b505050505050505050565b6040516315740f8d60e21b81526001600160d01b03198216600482015260009061181960f11b9073c88191f8cb8e6d4a668b047c1c8503432c3ca867906355d03e3490602401606060405180830381865afa158015610cc0573d6000803e3d6000fd5b505050506040513d601f19601f82011682018060405250810190610ce49190611314565b602001516001600160d01b03191614610cfc57600080fd5b6040516323b872dd60e01b81523360048201523060248201526044810186905273a0b86991c6218b36c1d19d4a2e9eb0ce3606eb48906323b872dd906064016020604051808303816000875af1158015610d5a573d6000803e3d6000fd5b505050506040513d601f19601f82011682018060405250810190610d7e9190611248565b50604051636d4756d760e01b81526001600160d01b03198316600482015261303960f01b602482015260006044820181905290736cb18ff2a33e981d1e38a663ca056c0a5265066a90636d4756d7906064016080604051808303816000875af1158015610def573d6000803e3d6000fd5b505050506040513d601f19601f82011682018060405250810190610e13919061154e565b5090506000610e2b6001600160801b03871688611584565b604051602481018290526001600160801b038089166044830152871660648201526001600160a01b0319841660848201529091507332e4c68b3a4a813b710595aeba7f6b7604ab9c159063c5bf0e9d9088903090819060a40160408051601f198184030181529181526020820180516001600160e01b03166347b3484560e01b1790525160e086901b6001600160e01b0319168152610ed09493929190600401611505565b6000604051808303816000875af1158015610eef573d6000803e3d6000fd5b505050506040513d6000823e601f3d908101601f19168201604052610f179190810190611458565b5060405163798a828b60e01b815273c88191f8cb8e6d4a668b047c1c8503432c3ca8679063798a828b90610f51908590339060040161138f565b6060604051808303816000875af1158015610f70573d6000803e3d6000fd5b505050506040513d601f19601f82011682018060405250810190610f9491906112f8565b50909695505050505050565b6001600160801b0381168114610fb557600080fd5b50565b6001600160a01b031981168114610fb557600080fd5b60008060008060808587031215610fe457600080fd5b843593506020850135610ff681610fa0565b9250604085013561100681610fa0565b9150606085013561101681610fb8565b939692955090935050565b6001600160a01b0381168114610fb557600080fd5b6000806000806080858703121561104c57600080fd5b843561105781611021565b9350602085013561106781610fb8565b925060408501359150606085013561101681610fa0565b600080600080600060a0868803121561109657600080fd5b85356110a181611021565b945060208601356110b181610fb8565b935060408601356110c181610fa0565b925060608601356110d181610fa0565b915060808601356110e181610fa0565b809150509295509295909350565b6001600160d01b031981168114610fb557600080fd5b60008060008060008060c0878903121561111e57600080fd5b863561112981610fb8565b955060208701359450604087013561114081611021565b9350606087013561115081610fa0565b9250608087013561116081610fa0565b915060a0870135611170816110ef565b809150509295509295509295565b6000806000806080858703121561119457600080fd5b8435935060208501356111a681610fa0565b925060408501356111b681610fa0565b91506060850135611016816110ef565b6000602082840312156111d857600080fd5b5051919050565b6000602082840312156111f157600080fd5b81516111fc81610fa0565b9392505050565b634e487b7160e01b600052601160045260246000fd5b600081600f0b6f7fffffffffffffffffffffffffffffff19810361123f5761123f611203565b60000392915050565b60006020828403121561125a57600080fd5b815180151581146111fc57600080fd5b634e487b7160e01b600052604160045260246000fd5b60006060828403121561129257600080fd5b6040516060810181811067ffffffffffffffff821117156112b5576112b561126a565b806040525080915082516112c881611021565b815260208301516112d8816110ef565b602082015260408301516112eb816110ef565b6040919091015292915050565b60006060828403121561130a57600080fd5b6111fc8383611280565b60006060828403121561132657600080fd5b6040516060810181811067ffffffffffffffff821117156113495761134961126a565b604052825161135781611021565b81526020830151611367816110ef565b6020820152604083015163ffffffff8116811461138357600080fd5b60408201529392505050565b6001600160a01b03199290921682526001600160a01b0316602082015260400190565b60005b838110156113cd5781810151838201526020016113b5565b838111156113dc576000848401525b50505050565b600081518084526113fa8160208601602086016113b2565b601f01601f19169290920160200192915050565b8481526001600160a01b0384811660208301528316604082015260a060608201819052600090820181905260c06080830181905261144e908301846113e2565b9695505050505050565b60006020828403121561146a57600080fd5b815167ffffffffffffffff8082111561148257600080fd5b818401915084601f83011261149657600080fd5b8151818111156114a8576114a861126a565b604051601f8201601f19908116603f011681019083821181831017156114d0576114d061126a565b816040528281528760208487010111156114e957600080fd5b6114fa8360208301602088016113b2565b979650505050505050565b6001600160801b03851681526001600160a01b0384811660208301528316604082015260a060608201819052600090820181905260c06080830181905261144e908301846113e2565b6000806080838503121561156157600080fd5b825161156c81610fb8565b915061157b8460208501611280565b90509250929050565b6000821982111561159757611597611203565b50019056fea2646970667358221220674be7ec679abc151aa4ab53265312fedabf5e1ad92eba3aa1ff2a1f88e9a65964736f6c634300080d0033",
    "linkReferences": {}
  }
}