{
  "contractName": "YieldLever",
  "abi": [
    {
      "inputs": [],
      "stateMutability": "nonpayable",
      "type": "constructor"
    },
    {
      "inputs": [
        {
          "internalType": "uint256",
          "name": "baseAmount",
          "type": "uint256"
        },
        {
          "internalType": "uint128",
          "name": "borrowAmount",
          "type": "uint128"
        },
        {
          "internalType": "uint128",
          "name": "maxFyAmount",
          "type": "uint128"
        },
        {
          "internalType": "bytes6",
          "name": "seriesId",
          "type": "bytes6"
        }
      ],
      "name": "invest",
      "outputs": [
        {
          "internalType": "bytes12",
          "name": "",
          "type": "bytes12"
        }
      ],
      "stateMutability": "nonpayable",
      "type": "function"
    },
    {
      "inputs": [
        {
          "internalType": "uint256",
          "name": "investAmount",
          "type": "uint256"
        },
        {
          "internalType": "uint128",
          "name": "borrowAmount",
          "type": "uint128"
        },
        {
          "internalType": "uint128",
          "name": "maxFyAmount",
          "type": "uint128"
        },
        {
          "internalType": "bytes12",
          "name": "vaultId",
          "type": "bytes12"
        }
      ],
      "name": "doInvest",
      "outputs": [],
      "stateMutability": "nonpayable",
      "type": "function"
    },
    {
      "inputs": [
        {
          "internalType": "bytes12",
          "name": "vaultId",
          "type": "bytes12"
        },
        {
          "internalType": "uint256",
          "name": "maxAmount",
          "type": "uint256"
        },
        {
          "internalType": "address",
          "name": "pool",
          "type": "address"
        },
        {
          "internalType": "uint128",
          "name": "ink",
          "type": "uint128"
        },
        {
          "internalType": "uint128",
          "name": "art",
          "type": "uint128"
        },
        {
          "internalType": "bytes6",
          "name": "seriesId",
          "type": "bytes6"
        }
      ],
      "name": "unwind",
      "outputs": [],
      "stateMutability": "nonpayable",
      "type": "function"
    },
    {
      "inputs": [
        {
          "internalType": "address",
          "name": "owner",
          "type": "address"
        },
        {
          "internalType": "bytes12",
          "name": "vaultId",
          "type": "bytes12"
        },
        {
          "internalType": "uint256",
          "name": "borrowAmount",
          "type": "uint256"
        },
        {
          "internalType": "uint128",
          "name": "ink",
          "type": "uint128"
        }
      ],
      "name": "doRepay",
      "outputs": [],
      "stateMutability": "nonpayable",
      "type": "function"
    },
    {
      "inputs": [
        {
          "internalType": "address",
          "name": "owner",
          "type": "address"
        },
        {
          "internalType": "bytes12",
          "name": "vaultId",
          "type": "bytes12"
        },
        {
          "internalType": "uint128",
          "name": "base",
          "type": "uint128"
        },
        {
          "internalType": "uint128",
          "name": "ink",
          "type": "uint128"
        },
        {
          "internalType": "uint128",
          "name": "art",
          "type": "uint128"
        }
      ],
      "name": "doClose",
      "outputs": [],
      "stateMutability": "nonpayable",
      "type": "function"
    }
  ],
  "bytecode": "0x60806040523480156200001157600080fd5b5073a0b86991c6218b36c1d19d4a2e9eb0ce3606eb4873ffffffffffffffffffffffffffffffffffffffff1663095ea7b373a354f35829ae975e850e23e9615b11da1b3dc4de7fffffffffffffffffffffffffffffffffffffffffffffffffffffffffffffffff6040518363ffffffff1660e01b81526004016200009792919062000144565b6020604051808303816000875af1158015620000b7573d6000803e3d6000fd5b505050506040513d601f19601f82011682018060405250810190620000dd9190620001b3565b50620001e5565b600073ffffffffffffffffffffffffffffffffffffffff82169050919050565b60006200011182620000e4565b9050919050565b620001238162000104565b82525050565b6000819050919050565b6200013e8162000129565b82525050565b60006040820190506200015b600083018562000118565b6200016a602083018462000133565b9392505050565b600080fd5b60008115159050919050565b6200018d8162000176565b81146200019957600080fd5b50565b600081519050620001ad8162000182565b92915050565b600060208284031215620001cc57620001cb62000171565b5b6000620001dc848285016200019c565b91505092915050565b61213b80620001f56000396000f3fe608060405234801561001057600080fd5b50600436106100575760003560e01c806347b348451461005c57806350bf94d7146100785780636e6bf1f414610094578063d238b433146100b0578063fcd064cf146100cc575b600080fd5b6100766004803603810190610071919061130f565b6100fc565b005b610092600480360381019061008d91906113d4565b61025a565b005b6100ae60048036038101906100a9919061143b565b61054d565b005b6100ca60048036038101906100c5919061150e565b61084a565b005b6100e660048036038101906100e1919061159b565b610e03565b6040516100f39190611611565b60405180910390f35b600073a354f35829ae975e850e23e9615b11da1b3dc4de73ffffffffffffffffffffffffffffffffffffffff16636e553f658673403ae7384e89b086ea2935d5fafed07465242b386040518363ffffffff1660e01b815260040161016192919061164a565b6020604051808303816000875af1158015610180573d6000803e3d6000fd5b505050506040513d601f19601f820116820180604052508101906101a49190611688565b9050736cb18ff2a33e981d1e38a663ca056c0a5265066a73ffffffffffffffffffffffffffffffffffffffff1663adf8d478837332e4c68b3a4a813b710595aeba7f6b7604ab9c158488886040518663ffffffff1660e01b815260040161020f9594939291906116c4565b6020604051808303816000875af115801561022e573d6000803e3d6000fd5b505050506040513d601f19601f82011682018060405250810190610252919061172c565b505050505050565b736cb18ff2a33e981d1e38a663ca056c0a5265066a73ffffffffffffffffffffffffffffffffffffffff166324bd54b484308461029690611795565b866040518563ffffffff1660e01b81526004016102b694939291906117ec565b6020604051808303816000875af11580156102d5573d6000803e3d6000fd5b505050506040513d601f19601f820116820180604052508101906102f9919061172c565b5073a354f35829ae975e850e23e9615b11da1b3dc4de73ffffffffffffffffffffffffffffffffffffffff16633ccfd60b6040518163ffffffff1660e01b81526004016020604051808303816000875af115801561035b573d6000803e3d6000fd5b505050506040513d601f19601f8201168201806040525081019061037f9190611688565b5073a0b86991c6218b36c1d19d4a2e9eb0ce3606eb4873ffffffffffffffffffffffffffffffffffffffff1663a9059cbb7332e4c68b3a4a813b710595aeba7f6b7604ab9c15846040518363ffffffff1660e01b81526004016103e3929190611831565b6020604051808303816000875af1158015610402573d6000803e3d6000fd5b505050506040513d601f19601f820116820180604052508101906104269190611892565b5073a0b86991c6218b36c1d19d4a2e9eb0ce3606eb4873ffffffffffffffffffffffffffffffffffffffff1663a9059cbb8573a0b86991c6218b36c1d19d4a2e9eb0ce3606eb4873ffffffffffffffffffffffffffffffffffffffff166370a08231306040518263ffffffff1660e01b81526004016104a591906118bf565b602060405180830381865afa1580156104c2573d6000803e3d6000fd5b505050506040513d601f19601f820116820180604052508101906104e69190611688565b6040518363ffffffff1660e01b8152600401610503929190611831565b6020604051808303816000875af1158015610522573d6000803e3d6000fd5b505050506040513d601f19601f820116820180604052508101906105469190611892565b5050505050565b736cb18ff2a33e981d1e38a663ca056c0a5265066a73ffffffffffffffffffffffffffffffffffffffff1663441c70f785308561058990611795565b8561059390611795565b6040518563ffffffff1660e01b81526004016105b294939291906118da565b6020604051808303816000875af11580156105d1573d6000803e3d6000fd5b505050506040513d601f19601f820116820180604052508101906105f5919061172c565b5073a354f35829ae975e850e23e9615b11da1b3dc4de73ffffffffffffffffffffffffffffffffffffffff16633ccfd60b6040518163ffffffff1660e01b81526004016020604051808303816000875af1158015610657573d6000803e3d6000fd5b505050506040513d601f19601f8201168201806040525081019061067b9190611688565b5073a0b86991c6218b36c1d19d4a2e9eb0ce3606eb4873ffffffffffffffffffffffffffffffffffffffff1663a9059cbb7332e4c68b3a4a813b710595aeba7f6b7604ab9c15856040518363ffffffff1660e01b81526004016106df92919061195a565b6020604051808303816000875af11580156106fe573d6000803e3d6000fd5b505050506040513d601f19601f820116820180604052508101906107229190611892565b5073a0b86991c6218b36c1d19d4a2e9eb0ce3606eb4873ffffffffffffffffffffffffffffffffffffffff1663a9059cbb8673a0b86991c6218b36c1d19d4a2e9eb0ce3606eb4873ffffffffffffffffffffffffffffffffffffffff166370a08231306040518263ffffffff1660e01b81526004016107a191906118bf565b602060405180830381865afa1580156107be573d6000803e3d6000fd5b505050506040513d601f19601f820116820180604052508101906107e29190611688565b6040518363ffffffff1660e01b81526004016107ff929190611831565b6020604051808303816000875af115801561081e573d6000803e3d6000fd5b505050506040513d601f19601f820116820180604052508101906108429190611892565b505050505050565b600073c88191f8cb8e6d4a668b047c1c8503432c3ca86773ffffffffffffffffffffffffffffffffffffffff16631e81f829886040518263ffffffff1660e01b81526004016108999190611611565b606060405180830381865afa1580156108b6573d6000803e3d6000fd5b505050506040513d601f19601f820116820180604052508101906108da9190611aa2565b9050600073c88191f8cb8e6d4a668b047c1c8503432c3ca86773ffffffffffffffffffffffffffffffffffffffff166355d03e34846040518263ffffffff1660e01b815260040161092b9190611ade565b606060405180830381865afa158015610948573d6000803e3d6000fd5b505050506040513d601f19601f8201168201806040525081019061096c9190611bd7565b90503373ffffffffffffffffffffffffffffffffffffffff16826000015173ffffffffffffffffffffffffffffffffffffffff16146109aa57600080fd5b73c88191f8cb8e6d4a668b047c1c8503432c3ca86773ffffffffffffffffffffffffffffffffffffffff1663798a828b89306040518363ffffffff1660e01b81526004016109f9929190611c04565b6060604051808303816000875af1158015610a18573d6000803e3d6000fd5b505050506040513d601f19601f82011682018060405250810190610a3c9190611aa2565b50806040015163ffffffff164263ffffffff161015610b89577332e4c68b3a4a813b710595aeba7f6b7604ab9c1573ffffffffffffffffffffffffffffffffffffffff1663c5bf0e9d888830338d8d8c604051602401610a9f9493929190611c2d565b6040516020818303038152906040527f50bf94d7000000000000000000000000000000000000000000000000000000007bffffffffffffffffffffffffffffffffffffffffffffffffffffffff19166020820180517bffffffffffffffffffffffffffffffffffffffffffffffffffffffff83818316178352505050506040518563ffffffff1660e01b8152600401610b3b9493929190611d31565b6000604051808303816000875af1158015610b5a573d6000803e3d6000fd5b505050506040513d6000823e3d601f19601f82011682018060405250810190610b839190611e3b565b50610d66565b600073c88191f8cb8e6d4a668b047c1c8503432c3ca86773ffffffffffffffffffffffffffffffffffffffff1663550b025385876040518363ffffffff1660e01b8152600401610bda929190611e84565b6020604051808303816000875af1158015610bf9573d6000803e3d6000fd5b505050506040513d601f19601f82011682018060405250810190610c1d919061172c565b90507332e4c68b3a4a813b710595aeba7f6b7604ab9c1573ffffffffffffffffffffffffffffffffffffffff1663c5bf0e9d82730d9a1a773be5a83eebda23bf98efb8585c3ae4f430338e878d8d604051602401610c7f959493929190611ead565b6040516020818303038152906040527f6e6bf1f4000000000000000000000000000000000000000000000000000000007bffffffffffffffffffffffffffffffffffffffffffffffffffffffff19166020820180517bffffffffffffffffffffffffffffffffffffffffffffffffffffffff83818316178352505050506040518563ffffffff1660e01b8152600401610d1b9493929190611f00565b6000604051808303816000875af1158015610d3a573d6000803e3d6000fd5b505050506040513d6000823e3d601f19601f82011682018060405250810190610d639190611e3b565b50505b73c88191f8cb8e6d4a668b047c1c8503432c3ca86773ffffffffffffffffffffffffffffffffffffffff1663798a828b89336040518363ffffffff1660e01b8152600401610db5929190611c04565b6060604051808303816000875af1158015610dd4573d6000803e3d6000fd5b505050506040513d601f19601f82011682018060405250810190610df89190611aa2565b505050505050505050565b60007f303200000000000000000000000000000000000000000000000000000000000079ffffffffffffffffffffffffffffffffffffffffffffffffffff191673c88191f8cb8e6d4a668b047c1c8503432c3ca86773ffffffffffffffffffffffffffffffffffffffff166355d03e34846040518263ffffffff1660e01b8152600401610e909190611ade565b606060405180830381865afa158015610ead573d6000803e3d6000fd5b505050506040513d601f19601f82011682018060405250810190610ed19190611bd7565b6020015179ffffffffffffffffffffffffffffffffffffffffffffffffffff191614610efc57600080fd5b73a0b86991c6218b36c1d19d4a2e9eb0ce3606eb4873ffffffffffffffffffffffffffffffffffffffff166323b872dd3330886040518463ffffffff1660e01b8152600401610f4d93929190611f5f565b6020604051808303816000875af1158015610f6c573d6000803e3d6000fd5b505050506040513d601f19601f82011682018060405250810190610f909190611892565b506000736cb18ff2a33e981d1e38a663ca056c0a5265066a73ffffffffffffffffffffffffffffffffffffffff16636d4756d7846530390000000060d01b60006040518463ffffffff1660e01b8152600401610fee93929190611fde565b6080604051808303816000875af115801561100d573d6000803e3d6000fd5b505050506040513d601f19601f82011682018060405250810190611031919061202a565b5090506000856fffffffffffffffffffffffffffffffff1687611054919061206a565b90507332e4c68b3a4a813b710595aeba7f6b7604ab9c1573ffffffffffffffffffffffffffffffffffffffff1663c5bf0e9d873030858b8b896040516024016110a094939291906120c0565b6040516020818303038152906040527f47b34845000000000000000000000000000000000000000000000000000000007bffffffffffffffffffffffffffffffffffffffffffffffffffffffff19166020820180517bffffffffffffffffffffffffffffffffffffffffffffffffffffffff83818316178352505050506040518563ffffffff1660e01b815260040161113c9493929190611f00565b6000604051808303816000875af115801561115b573d6000803e3d6000fd5b505050506040513d6000823e3d601f19601f820116820180604052508101906111849190611e3b565b5073c88191f8cb8e6d4a668b047c1c8503432c3ca86773ffffffffffffffffffffffffffffffffffffffff1663798a828b83336040518363ffffffff1660e01b81526004016111d4929190611c04565b6060604051808303816000875af11580156111f3573d6000803e3d6000fd5b505050506040513d601f19601f820116820180604052508101906112179190611aa2565b508192505050949350505050565b6000604051905090565b600080fd5b600080fd5b6000819050919050565b61124c81611239565b811461125757600080fd5b50565b60008135905061126981611243565b92915050565b60006fffffffffffffffffffffffffffffffff82169050919050565b6112948161126f565b811461129f57600080fd5b50565b6000813590506112b18161128b565b92915050565b60007fffffffffffffffffffffffff000000000000000000000000000000000000000082169050919050565b6112ec816112b7565b81146112f757600080fd5b50565b600081359050611309816112e3565b92915050565b600080600080608085870312156113295761132861122f565b5b60006113378782880161125a565b9450506020611348878288016112a2565b9350506040611359878288016112a2565b925050606061136a878288016112fa565b91505092959194509250565b600073ffffffffffffffffffffffffffffffffffffffff82169050919050565b60006113a182611376565b9050919050565b6113b181611396565b81146113bc57600080fd5b50565b6000813590506113ce816113a8565b92915050565b600080600080608085870312156113ee576113ed61122f565b5b60006113fc878288016113bf565b945050602061140d878288016112fa565b935050604061141e8782880161125a565b925050606061142f878288016112a2565b91505092959194509250565b600080600080600060a086880312156114575761145661122f565b5b6000611465888289016113bf565b9550506020611476888289016112fa565b9450506040611487888289016112a2565b9350506060611498888289016112a2565b92505060806114a9888289016112a2565b9150509295509295909350565b60007fffffffffffff000000000000000000000000000000000000000000000000000082169050919050565b6114eb816114b6565b81146114f657600080fd5b50565b600081359050611508816114e2565b92915050565b60008060008060008060c0878903121561152b5761152a61122f565b5b600061153989828a016112fa565b965050602061154a89828a0161125a565b955050604061155b89828a016113bf565b945050606061156c89828a016112a2565b935050608061157d89828a016112a2565b92505060a061158e89828a016114f9565b9150509295509295509295565b600080600080608085870312156115b5576115b461122f565b5b60006115c38782880161125a565b94505060206115d4878288016112a2565b93505060406115e5878288016112a2565b92505060606115f6878288016114f9565b91505092959194509250565b61160b816112b7565b82525050565b60006020820190506116266000830184611602565b92915050565b61163581611239565b82525050565b61164481611396565b82525050565b600060408201905061165f600083018561162c565b61166c602083018461163b565b9392505050565b60008151905061168281611243565b92915050565b60006020828403121561169e5761169d61122f565b5b60006116ac84828501611673565b91505092915050565b6116be8161126f565b82525050565b600060a0820190506116d96000830188611602565b6116e6602083018761163b565b6116f360408301866116b5565b61170060608301856116b5565b61170d60808301846116b5565b9695505050505050565b6000815190506117268161128b565b92915050565b6000602082840312156117425761174161122f565b5b600061175084828501611717565b91505092915050565b600081600f0b9050919050565b7f4e487b7100000000000000000000000000000000000000000000000000000000600052601160045260246000fd5b60006117a082611759565b91507fffffffffffffffffffffffffffffffff8000000000000000000000000000000082036117d2576117d1611766565b5b816000039050919050565b6117e681611759565b82525050565b60006080820190506118016000830187611602565b61180e602083018661163b565b61181b60408301856117dd565b61182860608301846116b5565b95945050505050565b6000604082019050611846600083018561163b565b611853602083018461162c565b9392505050565b60008115159050919050565b61186f8161185a565b811461187a57600080fd5b50565b60008151905061188c81611866565b92915050565b6000602082840312156118a8576118a761122f565b5b60006118b68482850161187d565b91505092915050565b60006020820190506118d4600083018461163b565b92915050565b60006080820190506118ef6000830187611602565b6118fc602083018661163b565b61190960408301856117dd565b61191660608301846117dd565b95945050505050565b6000819050919050565b600061194461193f61193a8461126f565b61191f565b611239565b9050919050565b61195481611929565b82525050565b600060408201905061196f600083018561163b565b61197c602083018461194b565b9392505050565b600080fd5b6000601f19601f8301169050919050565b7f4e487b7100000000000000000000000000000000000000000000000000000000600052604160045260246000fd5b6119d182611988565b810181811067ffffffffffffffff821117156119f0576119ef611999565b5b80604052505050565b6000611a03611225565b9050611a0f82826119c8565b919050565b600081519050611a23816113a8565b92915050565b600081519050611a38816114e2565b92915050565b600060608284031215611a5457611a53611983565b5b611a5e60606119f9565b90506000611a6e84828501611a14565b6000830152506020611a8284828501611a29565b6020830152506040611a9684828501611a29565b60408301525092915050565b600060608284031215611ab857611ab761122f565b5b6000611ac684828501611a3e565b91505092915050565b611ad8816114b6565b82525050565b6000602082019050611af36000830184611acf565b92915050565b6000611b0482611396565b9050919050565b611b1481611af9565b8114611b1f57600080fd5b50565b600081519050611b3181611b0b565b92915050565b600063ffffffff82169050919050565b611b5081611b37565b8114611b5b57600080fd5b50565b600081519050611b6d81611b47565b92915050565b600060608284031215611b8957611b88611983565b5b611b9360606119f9565b90506000611ba384828501611b22565b6000830152506020611bb784828501611a29565b6020830152506040611bcb84828501611b5e565b60408301525092915050565b600060608284031215611bed57611bec61122f565b5b6000611bfb84828501611b73565b91505092915050565b6000604082019050611c196000830185611602565b611c26602083018461163b565b9392505050565b6000608082019050611c42600083018761163b565b611c4f6020830186611602565b611c5c604083018561162c565b611c6960608301846116b5565b95945050505050565b600082825260208201905092915050565b50565b6000611c93600083611c72565b9150611c9e82611c83565b600082019050919050565b600081519050919050565b600082825260208201905092915050565b60005b83811015611ce3578082015181840152602081019050611cc8565b83811115611cf2576000848401525b50505050565b6000611d0382611ca9565b611d0d8185611cb4565b9350611d1d818560208601611cc5565b611d2681611988565b840191505092915050565b600060a082019050611d46600083018761162c565b611d53602083018661163b565b611d60604083018561163b565b8181036060830152611d7181611c86565b90508181036080830152611d858184611cf8565b905095945050505050565b600080fd5b600080fd5b600067ffffffffffffffff821115611db557611db4611999565b5b611dbe82611988565b9050602081019050919050565b6000611dde611dd984611d9a565b6119f9565b905082815260208101848484011115611dfa57611df9611d95565b5b611e05848285611cc5565b509392505050565b600082601f830112611e2257611e21611d90565b5b8151611e32848260208601611dcb565b91505092915050565b600060208284031215611e5157611e5061122f565b5b600082015167ffffffffffffffff811115611e6f57611e6e611234565b5b611e7b84828501611e0d565b91505092915050565b6000604082019050611e996000830185611acf565b611ea660208301846116b5565b9392505050565b600060a082019050611ec2600083018861163b565b611ecf6020830187611602565b611edc60408301866116b5565b611ee960608301856116b5565b611ef660808301846116b5565b9695505050505050565b600060a082019050611f15600083018761194b565b611f22602083018661163b565b611f2f604083018561163b565b8181036060830152611f4081611c86565b90508181036080830152611f548184611cf8565b905095945050505050565b6000606082019050611f74600083018661163b565b611f81602083018561163b565b611f8e604083018461162c565b949350505050565b6000819050919050565b600060ff82169050919050565b6000611fc8611fc3611fbe84611f96565b61191f565b611fa0565b9050919050565b611fd881611fad565b82525050565b6000606082019050611ff36000830186611acf565b6120006020830185611acf565b61200d6040830184611fcf565b949350505050565b600081519050612024816112e3565b92915050565b600080608083850312156120415761204061122f565b5b600061204f85828601612015565b925050602061206085828601611a3e565b9150509250929050565b600061207582611239565b915061208083611239565b9250827fffffffffffffffffffffffffffffffffffffffffffffffffffffffffffffffff038211156120b5576120b4611766565b5b828201905092915050565b60006080820190506120d5600083018761162c565b6120e260208301866116b5565b6120ef60408301856116b5565b6120fc6060830184611602565b9594505050505056fea264697066735822122064b085315f5421b7ef96d9369bd82157e12da206a59db822cd1d8e2c6e43c3fb64736f6c634300080d0033",
  "immutableReferences": {},
  "source": "// SPDX-License-Identifier: UNLICENSED\r\n\r\n/// # Security of this contract\r\n/// This contract owns nothing between transactions. Any funds or vaults owned\r\n/// by it may very well be extractable. The security comes from the fact that\r\n/// after any interaction, the user (re-)obtains ownership of their assets. In\r\n/// `doInvest`, this happens by transferring the vault at the end. In `unwind`\r\n/// the contract can actually take ownership of a vault, but only when called\r\n/// by the owner of the vault in the first place.\r\n\r\npragma solidity ^0.8.13;\r\n\r\nstruct Vault {\r\n    address owner;\r\n    bytes6 seriesId; // Each vault is related to only one series, which also determines the underlying.\r\n    bytes6 ilkId; // Asset accepted as collateral\r\n}\r\n\r\ninterface IFYToken {}\r\n\r\nstruct Series {\r\n    IFYToken fyToken; // Redeemable token for the series.\r\n    bytes6 baseId; // Asset received on redemption.\r\n    uint32 maturity; // Unix time at which redemption becomes possible.\r\n}\r\n\r\nstruct Balances {\r\n    uint128 art; // Debt amount\r\n    uint128 ink; // Collateral amount\r\n}\r\n\r\nstruct Debt {\r\n    uint96 max; // Maximum debt accepted for a given underlying, across all series\r\n    uint24 min; // Minimum debt accepted for a given underlying, across all series\r\n    uint8 dec; // Multiplying factor (10**dec) for max and min\r\n    uint128 sum; // Current debt for a given underlying, across all series\r\n}\r\n\r\nstruct SpotOracle {\r\n    address oracle; // Address for the spot price oracle\r\n    uint32 ratio; // Collateralization ratio to multiply the price for\r\n    // bytes8 free\r\n}\r\n\r\ninterface YieldLadle {\r\n  function pools(bytes6 seriesId) external view returns (address);\r\n  function build(bytes6 seriesId, bytes6 ilkId, uint8 salt)\r\n        external payable\r\n        returns(bytes12, Vault memory);\r\n  function serve(bytes12 vaultId_, address to, uint128 ink, uint128 base, uint128 max)\r\n        external payable\r\n        returns (uint128 art);\r\n  function repay(bytes12 vaultId_, address to, int128 ink, uint128 min)\r\n        external payable\r\n        returns (uint128 art);\r\n  function repayVault(bytes12 vaultId_, address to, int128 ink, uint128 max)\r\n        external payable\r\n        returns (uint128 base);\r\n  function close(bytes12 vaultId_, address to, int128 ink, int128 art)\r\n        external payable\r\n        returns (uint128 base);\r\n  function give(bytes12 vaultId_, address receiver)\r\n        external payable\r\n        returns(Vault memory vault);\r\n}\r\n\r\ninterface IERC20 {\r\n    event Approval(address indexed owner, address indexed spender, uint value);\r\n    event Transfer(address indexed from, address indexed to, uint value);\r\n\r\n    function balanceOf(address owner) external view returns (uint);\r\n  \r\n    function approve(address spender, uint value) external returns (bool);\r\n    function transfer(address to, uint value) external returns (bool);\r\n    function transferFrom(address from, address to, uint value) external returns (bool);\r\n}\r\n\r\ninterface yVault is IERC20 {\r\n  function deposit(uint amount, address to) external returns (uint256);\r\n  function withdraw() external returns (uint);\r\n}\r\n\r\ninterface IToken {\r\n    function loanTokenAddress() external view returns (address);\r\n    function flashBorrow(\r\n        uint256 borrowAmount,\r\n        address borrower,\r\n        address target,\r\n        string calldata signature,\r\n        bytes calldata data\r\n    ) external payable returns (bytes memory);\r\n}\r\n\r\ninterface Cauldron {\r\n  function series(bytes6 seriesId) external view returns (Series memory);\r\n  function vaults(bytes12 vaultId) external view returns (Vault memory);\r\n  function balances(bytes12 vaultId) external view returns (Balances memory);\r\n  function debt(bytes6 baseId, bytes6 ilkId) external view returns (Debt memory);\r\n  function debtToBase(bytes6 seriesId, uint128 art)\r\n        external\r\n        returns (uint128 base);\r\n  function give(bytes12 vaultId, address receiver)\r\n        external\r\n        returns(Vault memory vault);\r\n  function spotOracles(bytes6 baseId, bytes6 ilkId) external view returns (SpotOracle memory);\r\n  event VaultGiven(bytes12 indexed vaultId, address indexed receiver);\r\n}\r\n\r\ncontract YieldLever {\r\n  yVault constant yvUSDC = yVault(0xa354F35829Ae975e850e23e9615b11Da1B3dC4DE);\r\n  bytes6 constant ilkId = bytes6(0x303900000000); // for yvUSDC\r\n  IToken constant iUSDC = IToken(0x32E4c68B3A4a813b710595AebA7f6B7604Ab9c15); \r\n  IERC20 constant usdc = IERC20(0xA0b86991c6218b36c1d19D4a2e9Eb0cE3606eB48);\r\n  address constant usdcJoin = address(0x0d9A1A773be5a83eEbda23bf98efB8585C3ae4f4);\r\n  YieldLadle constant ladle = YieldLadle(0x6cB18fF2A33e981D1e38A663Ca056c0a5265066A);\r\n  address constant yvUSDCJoin = address(0x403ae7384E89b086Ea2935d5fAFed07465242B38);\r\n  Cauldron constant cauldron = Cauldron(0xc88191F8cb8e6D4a668B047c1C8503432c3Ca867);\r\n\r\n  bytes6 constant usdcId = bytes6(bytes32(\"02\"));\r\n\r\n  /// @dev YieldLever is not expected to hold any USDC\r\n  constructor() {\r\n    usdc.approve(address(yvUSDC), type(uint256).max);\r\n  }\r\n\r\n  /// @notice Invest `baseAmount` and borrow an additional `borrowAmount`.\r\n  ///   Use this to obtain a maximum of `maxFyAmount` to repay the flash loan.\r\n  ///   The end goal is to have a debt of `borrowAmount`, but earn interest on\r\n  ///   the entire collateral, including the borrowed part.\r\n  /// @param baseAmount - The amount to invest from your own funds.\r\n  /// @param borrowAmount - The extra amount to borrow. This is immediately\r\n  ///   repaid, so setting this to 3 times baseAmount will incur a debt of 75%\r\n  ///   of the collateral.\r\n  /// @param maxFyAmount - The maximum amount of fyTokens to sell. Should be\r\n  ///   enough to cover the flash loan.\r\n  /// @param seriesId - The series Id to invest in. For example, 0x303230360000\r\n  ///   for FYUSDC06LP.\r\n  /// @return vauldId - The ID of the created vault.\r\n   function invest(\r\n    uint256 baseAmount,\r\n    uint128 borrowAmount,\r\n    uint128 maxFyAmount,\r\n    bytes6 seriesId\r\n  ) external returns (bytes12) {\r\n    // Check that it is a USDC series.\r\n    require(cauldron.series(seriesId).baseId == usdcId);\r\n\r\n    // Take USDC from the msg sender. We know USDC reverts on failure.\r\n    // In future iterations, YieldLever can integrate with the Ladle by using\r\n    // USDC it received previously in the same transaction, if available.\r\n    usdc.transferFrom(msg.sender, address(this), baseAmount);\r\n    // Build a Yield Vault\r\n    (bytes12 vaultId, ) = ladle.build(seriesId, ilkId, 0);\r\n\r\n    uint256 investAmount = baseAmount + borrowAmount;\r\n\r\n    // Flash borrow USDC\r\n    iUSDC.flashBorrow(\r\n        borrowAmount,\r\n        address(this),\r\n        address(this),\r\n        \"\",\r\n        abi.encodeWithSignature(\r\n          \"doInvest(uint256,uint128,uint128,bytes12)\",\r\n          investAmount,\r\n          borrowAmount,\r\n          maxFyAmount,\r\n          vaultId\r\n        )\r\n    );\r\n    \r\n    // Finally, give the vault to the sender\r\n    cauldron.give(vaultId, msg.sender);\r\n\r\n    return vaultId;\r\n  }\r\n\r\n  /// @notice This function is called inside the flash loan and handles the\r\n  ///   actual investment.\r\n  /// @param borrowAmount - The amount borrowed using a flash loan.\r\n  /// @param maxFyAmount - The maximum amount of fyTokens to sell.\r\n  /// @param vaultId - The vault id to invest in.\r\n  /// @dev Calling this function outside a flash loan achieves nothing,\r\n  ///   since the contract needs to have assets and own the vault it's borrowing from.\r\n  function doInvest(\r\n    uint256 investAmount,\r\n    uint128 borrowAmount,\r\n    uint128 maxFyAmount,\r\n    bytes12 vaultId\r\n  ) external {\r\n    // Deposit USDC and obtain yvUSDC.\r\n    // Send it to the yvUSDCJoin to use as collateral in the vault.\r\n    // Returned is the amount of yvUSDC obtained.\r\n    uint128 yvUSDCBalance = uint128(yvUSDC.deposit(investAmount, yvUSDCJoin));\r\n\r\n    // Add collateral to the Yield vault.\r\n    // Borrow enough to repay the flash loan.\r\n    // Transfer it to `address(iUSDC)` to repay the loan.\r\n    ladle.serve(vaultId, address(iUSDC), yvUSDCBalance, borrowAmount, maxFyAmount);\r\n  }\r\n\r\n  /// @notice Empty a vault.\r\n  /// @param vaultId - The id of the vault that should be emptied.\r\n  /// @param maxAmount - The maximum amount of USDC to borrow. If past\r\n  ///   maturity, this parameter is unused as the amount can be determined\r\n  ///   precisely.\r\n  /// @param pool - The pool to deposit USDC into. This can be obtained via the\r\n  ///   seriesId, and calling `address pool = ladle.pools(seriesId);`\r\n  /// @param ink - The amount of collateral in the vault. Together with art,\r\n  ///   this value can be obtained using `cauldron.balances(vaultId);`, which\r\n  ///   will return an object containing both `art` and `ink`.\r\n  /// @param art - The amount of debt taken from the vault.\r\n  function unwind(bytes12 vaultId, uint256 maxAmount, address pool, uint128 ink, uint128 art, bytes6 seriesId) external {\r\n    Vault memory vault_ = cauldron.vaults(vaultId);\r\n    Series memory series_ = cauldron.series(seriesId);\r\n    \r\n    // Test that the caller is the owner of the vault.\r\n    // This is important as we will take the vault from the user.\r\n    require(vault_.owner == msg.sender);\r\n\r\n    // Give the vault to the contract\r\n    cauldron.give(vaultId, address(this));\r\n  \r\n    if (uint32(block.timestamp) < series_.maturity) {\r\n      // Series is not past maturity\r\n      // Borrow to repay debt, move directly to the pool.\r\n      iUSDC.flashBorrow(\r\n        maxAmount,\r\n        pool,\r\n        address(this),\r\n        \"\",\r\n        abi.encodeWithSignature(\"doRepay(address,bytes12,uint256,uint128)\", msg.sender, vaultId, maxAmount, ink)\r\n      );\r\n    } else {\r\n      // Series is past maturity, borrow and move directly to collateral pool\r\n      uint128 base = cauldron.debtToBase(seriesId, art);\r\n      iUSDC.flashBorrow(\r\n        base,\r\n        usdcJoin,\r\n        address(this),\r\n        \"\",\r\n        abi.encodeWithSignature(\"doClose(address,bytes12,uint128,uint128,uint128)\", msg.sender, vaultId, base, ink, art)\r\n      );\r\n    }\r\n\r\n    // Give the vault back to the sender, just in case there is anything left\r\n    cauldron.give(vaultId, msg.sender);\r\n  }\r\n\r\n  /// @notice Repay a vault after having borrowed a suitable amount using a\r\n  ///   flash loan. Will only succeed if the pool hasn't reached its expiration\r\n  ///   date yet.\r\n  /// @param owner - The address of the owner. This is the address that will be\r\n  ///   used to obtain certain parameters, and it is also the destination for\r\n  ///   the profit that was obtained.\r\n  /// @param vaultId - The vault id to repay.\r\n  /// @dev Calling this function outside a flash loan achieves nothing, since\r\n  ///   the contract needs to own the vault it's getting collateral from.\r\n  function doRepay(address owner, bytes12 vaultId, uint256 borrowAmount, uint128 ink) external {\r\n    // Repay Yield vault debt\r\n    ladle.repayVault(vaultId, address(this), -int128(ink), uint128(borrowAmount));\r\n\r\n    // withdraw from yvUSDC\r\n    yvUSDC.withdraw();\r\n    // Repay the flash loan\r\n    usdc.transfer(address(iUSDC), borrowAmount);\r\n    // Send the remaining USDC balance to the user.\r\n    usdc.transfer(owner, usdc.balanceOf(address(this)));\r\n  }\r\n\r\n  /// @notice Close a vault that has already reached its expiration date.\r\n  /// @param owner - The address of the owner. This is the address that will be\r\n  ///   used to obtain certain parameters, and it is also the destination for\r\n  ///   the profit that was obtained.\r\n  /// @param vaultId - The vault id to repay.\r\n  /// @param base - The size of the debt in USDC.\r\n  /// @dev Calling this function outside a flash loan achieves nothing, since\r\n  ///   the contract needs to own the vault it's getting collateral from.\r\n  function doClose(address owner, bytes12 vaultId, uint128 base, uint128 ink, uint128 art) external {\r\n    // Close the vault\r\n    ladle.close(vaultId, address(this), -int128(ink), -int128(art));\r\n\r\n    // Withdraw from yvUSDC\r\n    yvUSDC.withdraw();\r\n    // Repay flash loan\r\n    usdc.transfer(address(iUSDC), base);\r\n    // Send the remainder to user\r\n    usdc.transfer(owner, usdc.balanceOf(address(this)));\r\n  }\r\n}\r\n",
  "sourcePath": "F:\\Git\\yvarb\\contracts\\YieldLever.sol",
  "compiler": {
    "name": "solc",
    "version": "0.8.13+commit.abaa5c0e.Emscripten.clang"
  },
  "schemaVersion": "3.4.5",
  "updatedAt": "2022-04-20T08:35:10.955Z",
  "networkType": "ethereum",
  "devdoc": {
    "kind": "dev",
    "methods": {
      "constructor": {
        "details": "YieldLever is not expected to hold any USDC"
      },
      "doClose(address,bytes12,uint128,uint128,uint128)": {
        "details": "Calling this function outside a flash loan achieves nothing, since   the contract needs to own the vault it's getting collateral from.",
        "params": {
          "base": "- The size of the debt in USDC.",
          "owner": "- The address of the owner. This is the address that will be   used to obtain certain parameters, and it is also the destination for   the profit that was obtained.",
          "vaultId": "- The vault id to repay."
        }
      },
      "doInvest(uint256,uint128,uint128,bytes12)": {
        "details": "Calling this function outside a flash loan achieves nothing,   since the contract needs to have assets and own the vault it's borrowing from.",
        "params": {
          "borrowAmount": "- The amount borrowed using a flash loan.",
          "maxFyAmount": "- The maximum amount of fyTokens to sell.",
          "vaultId": "- The vault id to invest in."
        }
      },
      "doRepay(address,bytes12,uint256,uint128)": {
        "details": "Calling this function outside a flash loan achieves nothing, since   the contract needs to own the vault it's getting collateral from.",
        "params": {
          "owner": "- The address of the owner. This is the address that will be   used to obtain certain parameters, and it is also the destination for   the profit that was obtained.",
          "vaultId": "- The vault id to repay."
        }
      },
      "invest(uint256,uint128,uint128,bytes6)": {
        "params": {
          "baseAmount": "- The amount to invest from your own funds.",
          "borrowAmount": "- The extra amount to borrow. This is immediately   repaid, so setting this to 3 times baseAmount will incur a debt of 75%   of the collateral.",
          "maxFyAmount": "- The maximum amount of fyTokens to sell. Should be   enough to cover the flash loan.",
          "seriesId": "- The series Id to invest in. For example, 0x303230360000   for FYUSDC06LP."
        },
        "returns": {
          "_0": "vauldId - The ID of the created vault."
        }
      },
      "unwind(bytes12,uint256,address,uint128,uint128,bytes6)": {
        "params": {
          "art": "- The amount of debt taken from the vault.",
          "ink": "- The amount of collateral in the vault. Together with art,   this value can be obtained using `cauldron.balances(vaultId);`, which   will return an object containing both `art` and `ink`.",
          "maxAmount": "- The maximum amount of USDC to borrow. If past   maturity, this parameter is unused as the amount can be determined   precisely.",
          "pool": "- The pool to deposit USDC into. This can be obtained via the   seriesId, and calling `address pool = ladle.pools(seriesId);`",
          "vaultId": "- The id of the vault that should be emptied."
        }
      }
    },
    "version": 1
  },
  "userdoc": {
    "kind": "user",
    "methods": {
      "doClose(address,bytes12,uint128,uint128,uint128)": {
        "notice": "Close a vault that has already reached its expiration date."
      },
      "doInvest(uint256,uint128,uint128,bytes12)": {
        "notice": "This function is called inside the flash loan and handles the   actual investment."
      },
      "doRepay(address,bytes12,uint256,uint128)": {
        "notice": "Repay a vault after having borrowed a suitable amount using a   flash loan. Will only succeed if the pool hasn't reached its expiration   date yet."
      },
      "invest(uint256,uint128,uint128,bytes6)": {
        "notice": "Invest `baseAmount` and borrow an additional `borrowAmount`.   Use this to obtain a maximum of `maxFyAmount` to repay the flash loan.   The end goal is to have a debt of `borrowAmount`, but earn interest on   the entire collateral, including the borrowed part."
      },
      "unwind(bytes12,uint256,address,uint128,uint128,bytes6)": {
        "notice": "Empty a vault."
      }
    },
    "version": 1
  }
}